:1000000012C02CC02BC02AC029C028C027C026C0BF
:1000100025C024C023C022C021C020C01FC01EC0D4
:100020001DC01CC01BC011241FBECFE5D4E0DEBF25
:10003000CDBF10E0A0E6B0E0E2E5F3E002C005903D
:100040000D92A836B107D9F710E0A8E6B0E001C0DC
:100050001D92AA3BB107E1F732D179C1D1CF8064BB
:1000600087B9369A349BFECF24B135B1C9010895C2
:100070001F93CF93DF93C8E9D0E010E0812FEFDF2B
:10008000899399931F5F1830C9F7DF91CF911F9122
:100090000895DF92EF92FF920F931F93CF93DF9318
:1000A0001092B9001092B80007E610E0DD24C0E01D
:1000B000D0E080EAE82E8FE0F82E8D2DD0DFFE0113
:1000C000E855FF4F91838083FE01E858FF4F208160
:1000D000318128173907E0F4C7010197F1F7C7010B
:1000E0000197F1F7C7010197F1F7C7010197F1F700
:1000F000C7010197F1F7F801208130E08091B80045
:100100009091B900822B932B9093B9008093B80003
:10011000D394229601501040F8E0DF1671F68091DA
:10012000B80082BBDF91CF911F910F91FF90EF90AC
:10013000DF9008958FEF82BB40E050E0A1E0B0E097
:1001400060E971E022B3CD01042E02C0880F991F2F
:100150000A94E2F78095822382BB84EF91E0FB0151
:100160003197F1F70197D9F74F5F5F4F483051054D
:1001700049F78FEF82BB20E040E951E03FEF12BA30
:1001800084EF91E0FA013197F1F70197D9F732BB8B
:1001900084EF91E0FA013197F1F70197D9F72F5FDA
:1001A000233069F708958FEF82BB48E050E0A1E06B
:1001B000B0E060E971E022B3CD01042E02C0880FE7
:1001C000991F0A94E2F78095822382BB84EF91E025
:1001D000FB013197F1F70197D9F741505040413079
:1001E000510549F78FEF82BB08951F93CF93DF939B
:1001F00010E0CEE2D0E0812F32DFFE01E658FF4F63
:1002000091838083CE017ED0FE01E65CFF4F918317
:100210008083FE01E65BFF4F918380831F5F229600
:10022000183049F7DF91CF911F9108950F931F93D5
:10023000CF93DF93CEE2D0E000E41CE9FE01E65963
:10024000FF4FDE01A658BF4F608171818D919C9157
:10025000680F791F76956795FE01E65AFF4F718307
:100260006083CE0154D0C8010197F1F72296CE33B6
:10027000D10521F7DF91CF911F910F91089520E4CF
:100280003FE1C9010197F1F7B09918C0C901019781
:10029000F1F7B09913C0C9010197F1F7B0990EC0F9
:1002A000C9010197F1F7B09909C0C9010197F1F7A8
:1002B000B09904C0B09BFECFB9DF3CDF0895CF9367
:1002C000DF9385E886B980E487B915BA14BA8FEF51
:1002D00082BB81BB88BB17BA88DFC0E9D1E0B09987
:1002E00009C0CDDF88EE93E0FE013197F1F7019769
:1002F000D9F77BDFB19904C0B19BFECFB9DE53DFE4
:10030000C8DEEDCFA8E1B0E042E050E005C012D079
:10031000272F11C0DC01CB01FC01E199FECF06C003
:10032000FFBBEEBBE09A31960DB20D9241505040AA
:10033000B8F70895262FE199FECF9FBB8EBB2DBB4A
:100340000FB6F894E29AE19A0FBE01960895F894D8
:02035000FFCFDD
:080352000102040810204080A4
:00000001FF
